:020000040000FA
:02000000A9282D
:0800080008008001840AFF3E9C
:10001000031D0528A42883161C141A0883169B0A9E
:10002000A428030183169A001C1555309D00AA30A0
:100030009D009C149C181A281C119B0AA428A3013B
:10004000A200FF30A207031CA307031CA42803304F
:10005000A100E3302D202128A101F43EA000A10938
:10006000FE30031C3628A00703183328A0076400BD
:10007000A10F3328000020183D2820183F28080031
:100080000310A10CA00CFF3E031840282008A42850
:10009000A20002305728A101A301A2000130572875
:1000A000A101A301A20004305728A2000530A80036
:1000B00023082102031D5E282208200204300318B1
:1000C0000130031902302805031DFF30A428003831
:1000D000031DFF300405031DFF30A4280404031D85
:1000E000FF30A428A501A4011030A600210DA40D05
:1000F000A50D2208A4022308031C230FA502031840
:1001000088282208A40723080318230FA507031033
:10011000A00DA10DA60B76282008A4281030A80059
:10012000A101A001A70CA60C031C9C282208A00773
:1001300023080318230FA107A10CA00CA50CA40CE5
:10014000A80B92282408A4288313031383126400A5
:1001500008008B17AE288B1B0800462CE7280030C0
:1001600081000B110519B9280B1DB228FF30F300CF
:1001700008000108F3000800C33081000B11051DC1
:10018000C4280B1DBF28CB28693081000B1105192D
:10019000CD280B1DC728761408000108F3000800BD
:1001A0007110C830FC00DD200000051DDC28FC0BB0
:1001B000D328FD0BD1280800711408001330FC006F
:1001C0008B180800FC0BE028FD0BDE28080020300F
:1001D000840060300520A030840020300520831684
:1001E00078308F00831207309900831691018312B3
:1001F0000F30930083160430810096013330950050
:10020000831281018B128F018E01013090008316C1
:100210000C1483120C100B170430920095018316F6
:100220003F308500870183128501870107118316FE
:100230000711831287128316871283120330A300DB
:10024000E8302020831632309B0083120B20F00010
:10025000831633309B0083120B20DD00DE01640027
:1002600007307002031CA929EF01851A6F14851E3F
:100270006F10051AEF14051EEF1005186F15051CF9
:100280006F110730EF066F08073C031C5A294B21FA
:10029000DD00DE015A2901308A006F08523E031842
:1002A0008A0A820008340A340C340E3410341434B0
:1002B00018341E345D08A6005E08A7007830A2003E
:1002C000A3018E20DD002508DE006400851C702956
:1002D0000130EA0003105E0CE0005D0CDF007629BF
:1002E0000130EA000F30DF002730E00007158316E9
:1002F0000711643083121F20071183160711831220
:100300000130A300F4302020871683168712643052
:1003100083121F2087128316871283120130A300D5
:10032000F43020200F30A0002730A1006008A30087
:100330005F085520031DA82987168316871283128C
:100340000330A300E830202087128316871283121F
:10035000422A5D08A6005E08A7007830A200A3012B
:100360008E20DD002508DE0064007008013C031DBE
:10037000C0290130EA0003105E0CE0005D0CDF00D4
:1003800064007008023C031DCC290230EA0003100F
:100390005E0CE0005D0CDF0064007008033C031D90
:1003A000D7290130EA000F30DF002730E000640079
:1003B0007008043C031DE2290230EA000F30DF0020
:1003C0002730E00064007008053C031DE929013076
:1003D000EA0064007008063C031DF0290230EA00C0
:1003E000071483160710831207158316071164304C
:1003F00083121F20071183160711C83083121F2094
:10040000071583160711643083121F200711831606
:10041000071183120130A300F430202087168316C1
:100420008712643083121F20871283168712C83008
:1004300083121F20871683168712643083121F20B1
:1004400087128316871283120710831607108312F0
:100450000130A300F43020200F30A0002730A1008D
:100460006008A3005F085520031D422A87168316E3
:10047000871283120330A300E830202087128316EE
:10048000871283128316A7018312D901DA01DB01D7
:10049000DC01F501071183160711831287128316F9
:1004A000871283129630F20080308B000B16831671
:1004B000011383128B108B12AB207008053C031DB7
:1004C000FF30FF3AE1007008063C031DFF30FF3AA1
:1004D000E30061086304031D082CAB200130FA001F
:1004E000640031307A0203187D2AAB206430EE00BC
:1004F000AB20BC26AB20FA0F702AAB200130870658
:10050000831607108312AB2083162708003C031DB7
:10051000FF308312E1005F08A0006008A1002730CF
:10052000A3000F304820E3006108840063086E20B8
:10053000E300E4006400630864040319A72AAB2005
:100540000130DD020030031C013EDE02AB20AB2097
:100550005D08A0005E08A100A30100304820031D33
:10056000E32AAB205908A0005A08A1006008A300A4
:100570005F084D20031D602BAB205B08A0005C08CA
:10058000A1006008A3005F084D20031DB42BAB2021
:10059000640083162708013C8312031DD42AAB2074
:1005A000D90A0319DA0AAB20AB20640083162708A6
:1005B000023C8312031DE12AAB20DB0A0319DC0A8B
:1005C000AB20AB206D2AAB200F30A0002730A1005C
:1005D0006008A3005F085520031DFF2AAB206400BC
:1005E00083162708013C83120319602BAB2064009B
:1005F00083162708023C83120319B42BAB20AB20CF
:1006000083160330A7008312AB205908A0005A08B4
:10061000A1005C08A3005B084D20031D602BAB20EC
:100620005908A0005A08A1005C08A3005B085220EA
:10063000031DB42BAB2083160330A7008312AB201D
:100640000130E7006400C930670203185E2BAB205D
:100650000715831607118312AB20871283168712A2
:100660008312AB200130FA00640015307A020318BF
:10067000412BAB206430EE00AB20BC26AB20FA0F40
:10068000342BAB200711831607118312AB2087167A
:10069000831687128312AB200130FA0064001530F4
:1006A0007A0203185B2BAB206430EE00AB20BC2633
:1006B000AB20FA0F4E2BAB20E70F222BAB20E72805
:1006C000AB2083160330A7008312AB205B085902CE
:1006D000E5005C08031C013E5A02E600AB206508F9
:1006E000A0006608A100A3010B305220031D1A2BA5
:1006F000AB208712831687128312AB200130E700EC
:100700006400C93067020318B22BAB2007158316AB
:1007100007118312AB200130FA00640015307A0211
:1007200003189A2BAB206430EE00AB20BC26AB2024
:10073000FA0F8D2BAB200711831607118312AB2004
:100740000130FA00640015307A020318AF2BAB2099
:100750006430EE00AB20BC26AB20FA0FA22BAB20FE
:10076000E70F802BAB20E728AB2083160330A700D0
:100770008312AB2059085B02E5005A08031C013EB6
:100780005C02E600AB206508A0006608A100A3019A
:100790000B305220031D1A2BAB20071183160711B3
:1007A0008312AB200130E7006400C93067020318F0
:1007B000062CAB208716831687128312AB200130DC
:1007C000FA00640015307A020318EE2BAB20643077
:1007D000EE00AB20BC26AB20FA0FE12BAB2087123A
:1007E000831687128312AB200130FA0064001530A3
:1007F0007A020318032CAB206430EE00AB20BC2639
:10080000AB20FA0FF62BAB20E70FD42BAB20E72859
:10081000AB200130FA00640031307A020318182C42
:10082000AB206430EE00AB20BC26AB20FA0F0B2CC3
:10083000AB20640083162708013C8312031D2E2C75
:10084000AB200715831607118312AB2014301F202D
:10085000AB200711831607118312AB20AB20640075
:1008600083162708023C8312031D442CAB208716F5
:10087000831687128312AB2014301F20AB208712FF
:10088000831687128312AB20AB20082C7610AF2082
:1008900064008A30730203184E2C7E2D6400A4304D
:1008A000730203187E2D5A26640076187E2D6B087D
:1008B000EC006400EC1F662C5A26640076187E2D2E
:1008C0008316011383128B128B10852D8B266400E7
:1008D00076187E2D640083162708033C83120319C3
:1008E0007E2D7F306C05F70030306B05F9007908FC
:1008F000A000A10104304320F900F50A7708F200B6
:1009000064007908003C031DFF2C83162708023C75
:10091000031DFF30FF3A8312E10083162708003CD5
:10092000031DFF30FF3A8312E3006108840063086F
:100930006E20E300E4006400630864040319C42C1F
:10094000640075086A02031DB32C83160130A700EA
:1009500083120715831607118312871283168712D5
:100960008312F501BF2C071583160711831201307E
:10097000A3002C30202007118316071183120330A7
:10098000A300E83020207E2D640083162708013C58
:100990008312031DFF2C0711831607116430831285
:1009A0001F20071583160711643083121F200711BB
:1009B00083160711643083121F2007158316071151
:1009C000643083121F2007118316071164308312CD
:1009D0001F20071583160711643083121F2007118B
:1009E00083160711643083121F2007158316071121
:1009F0008312F5010330A300E83020207E2D64002F
:100A00007908013C031D7E2D83162708013C031D38
:100A1000FF30FF3A8312E10083162708003C031DD4
:100A2000FF30FF3A8312E3006108840063086E2000
:100A3000E300E4006400630864040319432D6400C8
:100A400075086A02031D322D83160230A700831237
:100A500087168316871283120711831607118312D4
:100A6000F5013E2D87168316871283120130A300ED
:100A70002C30202087128316871283120330A300A4
:100A8000E83020207E2D640083162708023C831264
:100A9000031D7E2D871283168712643083121F2058
:100AA000871683168712643083121F2087128316DD
:100AB0008712643083121F208716831687126430D2
:100AC00083121F20871283168712643083121F201F
:100AD000871683168712643083121F2087128316AD
:100AE0008712643083121F208716831687128312A1
:100AF000F5010330A300E83020207E2D0B1683166D
:100B0000011383128B128B1009007F306C05831642
:100B1000A60083126B088316A50083125A26640070
:100B20007618B62D64006B08E83C0319A22D64000A
:100B30006B08AA3C0319A22D64006B08A43C03199E
:100B4000A22DB62D07118316071183128712831663
:100B5000871264006530260283120318BE2D6400DC
:100B600083162608033C83120319F72D64008316AD
:100B70002708033C8312031D5C2AE32A6430831692
:100B800026028312F000831632309B008312700815
:100B9000122064301F20831633309B0025088312F7
:100BA00012200130FA00640007307A020318F22D97
:100BB000071583160711643083121F20071183164F
:100BC0000711643083121F20871683168712643042
:100BD00083121F20871283168712643083121F200E
:100BE000FA0FD32D0330A300E8302020E72864005B
:100BF00083162508053C8312031D242E0130FA00BC
:100C0000640004307A0203181F2E0715831607119B
:100C1000643083121F20071183160711643083127A
:100C20001F20871683168712643083121F208712B5
:100C300083168712643083121F20FA0F002E0330B0
:100C4000A300E8302020E728640083162508083C2C
:100C50008312031D592E0730F000831632309B009B
:100C60008312700812200130FA00640007307A0203
:100C70000318542E071583160711643083121F20A2
:100C8000071183160711643083121F2087168316FD
:100C90008712643083121F208712831687126430F4
:100CA00083121F20FA0F352E0330A300E8302020D6
:100CB000E728B62D0130E800640009306802031807
:100CC0008A2E6B08A600A7010230A200A3018E2085
:100CD000EB00BC206400761C6E2E08007308A00098
:100CE000C1305020E1007308A00082304B20E300A7
:100CF0006108840063086720031D802E76140800B5
:100D00006400A23073020318872E6B10882E6B14B8
:100D1000E80F5C2E08000130E8006400073068022C
:100D20000318BB2E6B08A600A7010230A200A30186
:100D30008E20EB00BC206400761C9F2E08007308F8
:100D4000A000C1305020E1007308A00082304B2089
:100D5000E3006108840063086720031DB12E761448
:100D600008006400A23073020318B82E6B10B92E6D
:100D70006B14E80F8D2E0800AB200230FD00AB2075
:100D8000DE20AB20EE03AB20640001306E020318BE
:0C0D9000BC2EAB200800AB206300CC2E72
:02400E008C30F4
:0442640007000C0043
:00000001FF
